{"abi":[{"type":"function","name":"swap","inputs":[{"name":"tokenA","type":"address","internalType":"address"},{"name":"amountA","type":"uint256","internalType":"uint256"},{"name":"partyB","type":"address","internalType":"address"},{"name":"tokenB","type":"address","internalType":"address"},{"name":"amountB","type":"uint256","internalType":"uint256"}],"outputs":[],"stateMutability":"nonpayable"},{"type":"event","name":"SwapExecuted","inputs":[{"name":"partyA","type":"address","indexed":true,"internalType":"address"},{"name":"partyB","type":"address","indexed":true,"internalType":"address"},{"name":"tokenA","type":"address","indexed":false,"internalType":"address"},{"name":"amountA","type":"uint256","indexed":false,"internalType":"uint256"},{"name":"tokenB","type":"address","indexed":false,"internalType":"address"},{"name":"amountB","type":"uint256","indexed":false,"internalType":"uint256"}],"anonymous":false}],"bytecode":{"object":"0x6080604052348015600e575f5ffd5b506106018061001c5f395ff3fe608060405234801561000f575f5ffd5b5060043610610029575f3560e01c8063078937281461002d575b5f5ffd5b61004760048036038101906100429190610316565b610049565b005b5f3390505f8511801561005b57505f82115b61009a576040517f08c379a0000000000000000000000000000000000000000000000000000000008152600401610091906103e7565b60405180910390fd5b8573ffffffffffffffffffffffffffffffffffffffff166323b872dd8286886040518463ffffffff1660e01b81526004016100d793929190610423565b6020604051808303815f875af11580156100f3573d5f5f3e3d5ffd5b505050506040513d601f19601f82011682018060405250810190610117919061048d565b610156576040517f08c379a000000000000000000000000000000000000000000000000000000000815260040161014d90610502565b60405180910390fd5b8273ffffffffffffffffffffffffffffffffffffffff166323b872dd8583856040518463ffffffff1660e01b815260040161019393929190610423565b6020604051808303815f875af11580156101af573d5f5f3e3d5ffd5b505050506040513d601f19601f820116820180604052508101906101d3919061048d565b610212576040517f08c379a00000000000000000000000000000000000000000000000000000000081526004016102099061056a565b60405180910390fd5b8373ffffffffffffffffffffffffffffffffffffffff168173ffffffffffffffffffffffffffffffffffffffff167fdf3ff2e86e1af4d6d8bf6878cfd4467c3ea1378c946a742e9634281e328048c0888887876040516102759493929190610588565b60405180910390a3505050505050565b5f5ffd5b5f73ffffffffffffffffffffffffffffffffffffffff82169050919050565b5f6102b282610289565b9050919050565b6102c2816102a8565b81146102cc575f5ffd5b50565b5f813590506102dd816102b9565b92915050565b5f819050919050565b6102f5816102e3565b81146102ff575f5ffd5b50565b5f81359050610310816102ec565b92915050565b5f5f5f5f5f60a0868803121561032f5761032e610285565b5b5f61033c888289016102cf565b955050602061034d88828901610302565b945050604061035e888289016102cf565b935050606061036f888289016102cf565b925050608061038088828901610302565b9150509295509295909350565b5f82825260208201905092915050565b7f416d6f756e7473206d757374206265203e2030000000000000000000000000005f82015250565b5f6103d160138361038d565b91506103dc8261039d565b602082019050919050565b5f6020820190508181035f8301526103fe816103c5565b9050919050565b61040e816102a8565b82525050565b61041d816102e3565b82525050565b5f6060820190506104365f830186610405565b6104436020830185610405565b6104506040830184610414565b949350505050565b5f8115159050919050565b61046c81610458565b8114610476575f5ffd5b50565b5f8151905061048781610463565b92915050565b5f602082840312156104a2576104a1610285565b5b5f6104af84828501610479565b91505092915050565b7f546f6b656e41207472616e73666572206661696c6564000000000000000000005f82015250565b5f6104ec60168361038d565b91506104f7826104b8565b602082019050919050565b5f6020820190508181035f830152610519816104e0565b9050919050565b7f546f6b656e42207472616e73666572206661696c6564000000000000000000005f82015250565b5f61055460168361038d565b915061055f82610520565b602082019050919050565b5f6020820190508181035f83015261058181610548565b9050919050565b5f60808201905061059b5f830187610405565b6105a86020830186610414565b6105b56040830185610405565b6105c26060830184610414565b9594505050505056fea26469706673582212204009cd9359b35f63d6c3be8d88e6448ce2d038f7149c260cce50e6fa634da2c664736f6c634300081d0033","linkReferences":{}},"methodIdentifiers":{"swap(address,uint256,address,address,uint256)":"07893728"},"id":0}