{
  "_format": "hh-sol-artifact-1",
  "contractName": "TREXFactory",
  "sourceName": "contracts/factory/TREXFactory.sol",
  "abi": [
    {
      "inputs": [
        {
          "internalType": "address",
          "name": "implementationAuthority_",
          "type": "address"
        },
        {
          "internalType": "address",
          "name": "idFactory_",
          "type": "address"
        }
      ],
      "stateMutability": "nonpayable",
      "type": "constructor"
    },
    {
      "anonymous": false,
      "inputs": [
        {
          "indexed": true,
          "internalType": "address",
          "name": "_addr",
          "type": "address"
        }
      ],
      "name": "Deployed",
      "type": "event"
    },
    {
      "anonymous": false,
      "inputs": [
        {
          "indexed": false,
          "internalType": "address",
          "name": "_idFactory",
          "type": "address"
        }
      ],
      "name": "IdFactorySet",
      "type": "event"
    },
    {
      "anonymous": false,
      "inputs": [
        {
          "indexed": false,
          "internalType": "address",
          "name": "_implementationAuthority",
          "type": "address"
        }
      ],
      "name": "ImplementationAuthoritySet",
      "type": "event"
    },
    {
      "anonymous": false,
      "inputs": [
        {
          "indexed": true,
          "internalType": "address",
          "name": "previousOwner",
          "type": "address"
        },
        {
          "indexed": true,
          "internalType": "address",
          "name": "newOwner",
          "type": "address"
        }
      ],
      "name": "OwnershipTransferred",
      "type": "event"
    },
    {
      "anonymous": false,
      "inputs": [
        {
          "indexed": true,
          "internalType": "address",
          "name": "_token",
          "type": "address"
        },
        {
          "indexed": false,
          "internalType": "address",
          "name": "_ir",
          "type": "address"
        },
        {
          "indexed": false,
          "internalType": "address",
          "name": "_irs",
          "type": "address"
        },
        {
          "indexed": false,
          "internalType": "address",
          "name": "_tir",
          "type": "address"
        },
        {
          "indexed": false,
          "internalType": "address",
          "name": "_ctr",
          "type": "address"
        },
        {
          "indexed": false,
          "internalType": "address",
          "name": "_mc",
          "type": "address"
        },
        {
          "indexed": true,
          "internalType": "string",
          "name": "_salt",
          "type": "string"
        }
      ],
      "name": "TREXSuiteDeployed",
      "type": "event"
    },
    {
      "inputs": [
        {
          "internalType": "string",
          "name": "_salt",
          "type": "string"
        },
        {
          "components": [
            {
              "internalType": "address",
              "name": "owner",
              "type": "address"
            },
            {
              "internalType": "string",
              "name": "name",
              "type": "string"
            },
            {
              "internalType": "string",
              "name": "symbol",
              "type": "string"
            },
            {
              "internalType": "uint8",
              "name": "decimals",
              "type": "uint8"
            },
            {
              "internalType": "address",
              "name": "irs",
              "type": "address"
            },
            {
              "internalType": "address",
              "name": "ONCHAINID",
              "type": "address"
            },
            {
              "internalType": "address[]",
              "name": "irAgents",
              "type": "address[]"
            },
            {
              "internalType": "address[]",
              "name": "tokenAgents",
              "type": "address[]"
            },
            {
              "internalType": "address[]",
              "name": "complianceModules",
              "type": "address[]"
            },
            {
              "internalType": "bytes[]",
              "name": "complianceSettings",
              "type": "bytes[]"
            }
          ],
          "internalType": "struct ITREXFactory.TokenDetails",
          "name": "_tokenDetails",
          "type": "tuple"
        },
        {
          "components": [
            {
              "internalType": "uint256[]",
              "name": "claimTopics",
              "type": "uint256[]"
            },
            {
              "internalType": "address[]",
              "name": "issuers",
              "type": "address[]"
            },
            {
              "internalType": "uint256[][]",
              "name": "issuerClaims",
              "type": "uint256[][]"
            }
          ],
          "internalType": "struct ITREXFactory.ClaimDetails",
          "name": "_claimDetails",
          "type": "tuple"
        }
      ],
      "name": "deployTREXSuite",
      "outputs": [],
      "stateMutability": "nonpayable",
      "type": "function"
    },
    {
      "inputs": [],
      "name": "getIdFactory",
      "outputs": [
        {
          "internalType": "address",
          "name": "",
          "type": "address"
        }
      ],
      "stateMutability": "view",
      "type": "function"
    },
    {
      "inputs": [],
      "name": "getImplementationAuthority",
      "outputs": [
        {
          "internalType": "address",
          "name": "",
          "type": "address"
        }
      ],
      "stateMutability": "view",
      "type": "function"
    },
    {
      "inputs": [
        {
          "internalType": "string",
          "name": "_salt",
          "type": "string"
        }
      ],
      "name": "getToken",
      "outputs": [
        {
          "internalType": "address",
          "name": "",
          "type": "address"
        }
      ],
      "stateMutability": "view",
      "type": "function"
    },
    {
      "inputs": [],
      "name": "owner",
      "outputs": [
        {
          "internalType": "address",
          "name": "",
          "type": "address"
        }
      ],
      "stateMutability": "view",
      "type": "function"
    },
    {
      "inputs": [
        {
          "internalType": "address",
          "name": "_contract",
          "type": "address"
        },
        {
          "internalType": "address",
          "name": "_newOwner",
          "type": "address"
        }
      ],
      "name": "recoverContractOwnership",
      "outputs": [],
      "stateMutability": "nonpayable",
      "type": "function"
    },
    {
      "inputs": [],
      "name": "renounceOwnership",
      "outputs": [],
      "stateMutability": "nonpayable",
      "type": "function"
    },
    {
      "inputs": [
        {
          "internalType": "address",
          "name": "idFactory_",
          "type": "address"
        }
      ],
      "name": "setIdFactory",
      "outputs": [],
      "stateMutability": "nonpayable",
      "type": "function"
    },
    {
      "inputs": [
        {
          "internalType": "address",
          "name": "implementationAuthority_",
          "type": "address"
        }
      ],
      "name": "setImplementationAuthority",
      "outputs": [],
      "stateMutability": "nonpayable",
      "type": "function"
    },
    {
      "inputs": [
        {
          "internalType": "string",
          "name": "",
          "type": "string"
        }
      ],
      "name": "tokenDeployed",
      "outputs": [
        {
          "internalType": "address",
          "name": "",
          "type": "address"
        }
      ],
      "stateMutability": "view",
      "type": "function"
    },
    {
      "inputs": [
        {
          "internalType": "address",
          "name": "newOwner",
          "type": "address"
        }
      ],
      "name": "transferOwnership",
      "outputs": [],
      "stateMutability": "nonpayable",
      "type": "function"
    }
  ],
  "bytecode": "0x60806040523480156200001157600080fd5b5060405162006656380380620066568339810160408190526200003491620007f5565b6200003f336200005d565b6200004a82620000ad565b6200005581620006c9565b505062000852565b600080546001600160a01b038381166001600160a01b0319831681178455604051919092169283917f8be0079c531659141344cd1fd0a4f28419497f9722a3daafe3b4186f6b6457e09190a35050565b620000b76200077a565b6001600160a01b038116620001135760405162461bcd60e51b815260206004820152601f60248201527f696e76616c696420617267756d656e74202d207a65726f20616464726573730060448201526064015b60405180910390fd5b60006001600160a01b0316816001600160a01b031663709bc7f36040518163ffffffff1660e01b8152600401602060405180830381865afa1580156200015d573d6000803e3d6000fd5b505050506040513d601f19601f820116820180604052508101906200018391906200082d565b6001600160a01b031603620002015760405162461bcd60e51b815260206004820152603760248201527f696e76616c696420546f6b656e496d706c656d656e746174696f6e20696e204960448201527f6d706c656d656e746174696f6e20417574686f7269747900000000000000000060648201526084016200010a565b60006001600160a01b0316816001600160a01b0316636ff6e83f6040518163ffffffff1660e01b8152600401602060405180830381865afa1580156200024b573d6000803e3d6000fd5b505050506040513d601f19601f820116820180604052508101906200027191906200082d565b6001600160a01b031603620002de5760405162461bcd60e51b815260206004820152603560248201527f696e76616c696420435452496d706c656d656e746174696f6e20696e20496d7060448201526000805160206200663683398151915260648201526084016200010a565b60006001600160a01b0316816001600160a01b0316631ee9ce8b6040518163ffffffff1660e01b8152600401602060405180830381865afa15801562000328573d6000803e3d6000fd5b505050506040513d601f19601f820116820180604052508101906200034e91906200082d565b6001600160a01b031603620003cc5760405162461bcd60e51b815260206004820152603460248201527f696e76616c6964204952496d706c656d656e746174696f6e20696e20496d706c60448201527f656d656e746174696f6e20417574686f7269747900000000000000000000000060648201526084016200010a565b60006001600160a01b0316816001600160a01b0316639e3e7bb96040518163ffffffff1660e01b8152600401602060405180830381865afa15801562000416573d6000803e3d6000fd5b505050506040513d601f19601f820116820180604052508101906200043c91906200082d565b6001600160a01b031603620004a95760405162461bcd60e51b815260206004820152603560248201527f696e76616c696420495253496d706c656d656e746174696f6e20696e20496d7060448201526000805160206200663683398151915260648201526084016200010a565b60006001600160a01b0316816001600160a01b03166361f898256040518163ffffffff1660e01b8152600401602060405180830381865afa158015620004f3573d6000803e3d6000fd5b505050506040513d601f19601f820116820180604052508101906200051991906200082d565b6001600160a01b031603620005975760405162461bcd60e51b815260206004820152603460248201527f696e76616c6964204d43496d706c656d656e746174696f6e20696e20496d706c60448201527f656d656e746174696f6e20417574686f7269747900000000000000000000000060648201526084016200010a565b60006001600160a01b0316816001600160a01b031663fedcc0526040518163ffffffff1660e01b8152600401602060405180830381865afa158015620005e1573d6000803e3d6000fd5b505050506040513d601f19601f820116820180604052508101906200060791906200082d565b6001600160a01b031603620006745760405162461bcd60e51b815260206004820152603560248201527f696e76616c696420544952496d706c656d656e746174696f6e20696e20496d7060448201526000805160206200663683398151915260648201526084016200010a565b600180546001600160a01b0319166001600160a01b0383169081179091556040519081527f3b1074392ed8e8424715d0dda2197eede67080b377fc8370e26f3e882207f6b8906020015b60405180910390a150565b620006d36200077a565b6001600160a01b0381166200072b5760405162461bcd60e51b815260206004820152601f60248201527f696e76616c696420617267756d656e74202d207a65726f20616464726573730060448201526064016200010a565b600280546001600160a01b0319166001600160a01b0383169081179091556040519081527fae81f4fee1b2d830e39ae449967642aaa0e5a1771aa200d0a50853010992242c90602001620006be565b6000546001600160a01b03163314620007d65760405162461bcd60e51b815260206004820181905260248201527f4f776e61626c653a2063616c6c6572206973206e6f7420746865206f776e657260448201526064016200010a565b565b80516001600160a01b0381168114620007f057600080fd5b919050565b600080604083850312156200080957600080fd5b6200081483620007d8565b91506200082460208401620007d8565b90509250929050565b6000602082840312156200084057600080fd5b6200084b82620007d8565b9392505050565b615dd480620008626000396000f3fe60806040523480156200001157600080fd5b5060043610620000b75760003560e01c806392dd9d65116200007a57806392dd9d65146200012c578063c1733f681462000143578063ccd41cce146200015a578063cf753d371462000171578063f2fde38b1462000188578063fb88d79c146200019f57600080fd5b80632d5f118714620000bc57806350b0183814620000e55780635f2773a514620000fe578063715018a614620001105780638da5cb5b146200011a575b600080fd5b6001546001600160a01b03165b6040516001600160a01b03909116815260200160405180910390f35b620000fc620000f636600462001d5d565b620001d6565b005b6002546001600160a01b0316620000c9565b620000fc62000241565b6000546001600160a01b0316620000c9565b620000fc6200013d36600462001d9b565b62000259565b620000c96200015436600462001dc2565b6200087e565b620000fc6200016b36600462001d9b565b620008b5565b620000fc6200018236600462001ee4565b62000966565b620000fc6200019936600462001d9b565b6200192a565b620000c9620001b036600462001f84565b80516020818301810180516003825292820191909301209152546001600160a01b031681565b620001e0620019a9565b60405163f2fde38b60e01b81526001600160a01b03828116600483015283169063f2fde38b90602401600060405180830381600087803b1580156200022457600080fd5b505af115801562000239573d6000803e3d6000fd5b505050505050565b6200024b620019a9565b62000257600062001a05565b565b62000263620019a9565b6001600160a01b038116620002bf5760405162461bcd60e51b815260206004820152601f60248201527f696e76616c696420617267756d656e74202d207a65726f20616464726573730060448201526064015b60405180910390fd5b60006001600160a01b0316816001600160a01b031663709bc7f36040518163ffffffff1660e01b8152600401602060405180830381865afa15801562000309573d6000803e3d6000fd5b505050506040513d601f19601f820116820180604052508101906200032f919062001fc5565b6001600160a01b031603620003ad5760405162461bcd60e51b815260206004820152603760248201527f696e76616c696420546f6b656e496d706c656d656e746174696f6e20696e204960448201527f6d706c656d656e746174696f6e20417574686f726974790000000000000000006064820152608401620002b6565b60006001600160a01b0316816001600160a01b0316636ff6e83f6040518163ffffffff1660e01b8152600401602060405180830381865afa158015620003f7573d6000803e3d6000fd5b505050506040513d601f19601f820116820180604052508101906200041d919062001fc5565b6001600160a01b031603620004935760405162461bcd60e51b815260206004820152603560248201527f696e76616c696420435452496d706c656d656e746174696f6e20696e20496d706044820152746c656d656e746174696f6e20417574686f7269747960581b6064820152608401620002b6565b60006001600160a01b0316816001600160a01b0316631ee9ce8b6040518163ffffffff1660e01b8152600401602060405180830381865afa158015620004dd573d6000803e3d6000fd5b505050506040513d601f19601f8201168201806040525081019062000503919062001fc5565b6001600160a01b031603620005785760405162461bcd60e51b815260206004820152603460248201527f696e76616c6964204952496d706c656d656e746174696f6e20696e20496d706c604482015273656d656e746174696f6e20417574686f7269747960601b6064820152608401620002b6565b60006001600160a01b0316816001600160a01b0316639e3e7bb96040518163ffffffff1660e01b8152600401602060405180830381865afa158015620005c2573d6000803e3d6000fd5b505050506040513d601f19601f82011682018060405250810190620005e8919062001fc5565b6001600160a01b0316036200065e5760405162461bcd60e51b815260206004820152603560248201527f696e76616c696420495253496d706c656d656e746174696f6e20696e20496d706044820152746c656d656e746174696f6e20417574686f7269747960581b6064820152608401620002b6565b60006001600160a01b0316816001600160a01b03166361f898256040518163ffffffff1660e01b8152600401602060405180830381865afa158015620006a8573d6000803e3d6000fd5b505050506040513d601f19601f82011682018060405250810190620006ce919062001fc5565b6001600160a01b031603620007435760405162461bcd60e51b815260206004820152603460248201527f696e76616c6964204d43496d706c656d656e746174696f6e20696e20496d706c604482015273656d656e746174696f6e20417574686f7269747960601b6064820152608401620002b6565b60006001600160a01b0316816001600160a01b031663fedcc0526040518163ffffffff1660e01b8152600401602060405180830381865afa1580156200078d573d6000803e3d6000fd5b505050506040513d601f19601f82011682018060405250810190620007b3919062001fc5565b6001600160a01b031603620008295760405162461bcd60e51b815260206004820152603560248201527f696e76616c696420544952496d706c656d656e746174696f6e20696e20496d706044820152746c656d656e746174696f6e20417574686f7269747960581b6064820152608401620002b6565b600180546001600160a01b0319166001600160a01b0383169081179091556040519081527f3b1074392ed8e8424715d0dda2197eede67080b377fc8370e26f3e882207f6b8906020015b60405180910390a150565b6000600383836040516200089492919062001fe5565b908152604051908190036020019020546001600160a01b0316905092915050565b620008bf620019a9565b6001600160a01b038116620009175760405162461bcd60e51b815260206004820152601f60248201527f696e76616c696420617267756d656e74202d207a65726f2061646472657373006044820152606401620002b6565b600280546001600160a01b0319166001600160a01b0383169081179091556040519081527fae81f4fee1b2d830e39ae449967642aaa0e5a1771aa200d0a50853010992242c9060200162000873565b62000970620019a9565b60006001600160a01b03166003846040516200098d91906200201b565b908152604051908190036020019020546001600160a01b031614620009ee5760405162461bcd60e51b81526020600482015260166024820152751d1bdad95b88185b1c9958591e4819195c1b1bde595960521b6044820152606401620002b6565b620009fd604082018262002039565b905062000a0e602083018362002039565b90501462000a5f5760405162461bcd60e51b815260206004820152601760248201527f636c61696d207061747465726e206e6f742076616c69640000000000000000006044820152606401620002b6565b600562000a70602083018362002039565b9050111562000acc5760405162461bcd60e51b815260206004820152602160248201527f6d6178203520636c61696d2069737375657273206174206465706c6f796d656e6044820152601d60fa1b6064820152608401620002b6565b600562000ada828062002039565b9050111562000b2c5760405162461bcd60e51b815260206004820181905260248201527f6d6178203520636c61696d20746f70696373206174206465706c6f796d656e746044820152606401620002b6565b600562000b3d60c084018462002039565b90501115801562000b5f5750600562000b5a60e084018462002039565b905011155b62000bad5760405162461bcd60e51b815260206004820152601a60248201527f6d61782035206167656e7473206174206465706c6f796d656e740000000000006044820152606401620002b6565b601e62000bbf61010084018462002039565b9050111562000c1d5760405162461bcd60e51b815260206004820152602360248201527f6d6178203330206d6f64756c6520616374696f6e73206174206465706c6f796d604482015262195b9d60ea1b6064820152608401620002b6565b62000c2d61012083018362002039565b905062000c3f61010084018462002039565b9050101562000c915760405162461bcd60e51b815260206004820152601a60248201527f696e76616c696420636f6d706c69616e6365207061747465726e0000000000006044820152606401620002b6565b60015460009062000cad9085906001600160a01b031662001a55565b60015490915060009062000ccc9086906001600160a01b031662001ae4565b60015490915060009062000ceb9087906001600160a01b031662001af9565b905060008062000d0260a088016080890162001d9b565b6001600160a01b03160362000d325760015462000d2a9088906001600160a01b031662001b0e565b905062000d47565b62000d4460a087016080880162001d9b565b90505b60015460009062000d669089906001600160a01b031687878662001b23565b60015490915060009062000e58908a906001600160a01b0316848762000d9060208e018e6200208d565b8080601f016020809104026020016040519081016040528093929190818152602001838380828437600081840152601f19601f820116905080830192505050505050508d806040019062000de591906200208d565b8080601f016020809104026020016040519081016040528093929190818152602001838380828437600081840152601f19601f820116905080830192505050505050508e606001602081019062000e3d9190620020d7565b8f60a001602081019062000e52919062001d9b565b62001bca565b9050600062000e6e60c08a0160a08b0162001d9b565b6001600160a01b03160362000f6b576002546000906001600160a01b0316633d56ff668362000ea160208d018d62001d9b565b8d6040518463ffffffff1660e01b815260040162000ec2939291906200212a565b6020604051808303816000875af115801562000ee2573d6000803e3d6000fd5b505050506040513d601f19601f8201168201806040525081019062000f08919062001fc5565b604051633d1ddc5b60e01b81526001600160a01b03808316600483015291925090831690633d1ddc5b90602401600060405180830381600087803b15801562000f5057600080fd5b505af115801562000f65573d6000803e3d6000fd5b50505050505b60005b62000f7a888062002039565b905081101562001022576001600160a01b03861663c7b2255162000f9f8a8062002039565b8481811062000fb25762000fb262002161565b905060200201356040518263ffffffff1660e01b815260040162000fd891815260200190565b600060405180830381600087803b15801562000ff357600080fd5b505af115801562001008573d6000803e3d6000fd5b505050508080620010199062002177565b91505062000f6e565b5060005b62001035602089018962002039565b905081101562001127576001600160a01b038716639f63ea986200105d60208b018b62002039565b8481811062001070576200107062002161565b905060200201602081019062001087919062001d9b565b6200109660408c018c62002039565b85818110620010a957620010a962002161565b9050602002810190620010bd919062002039565b6040518463ffffffff1660e01b8152600401620010dd939291906200219f565b600060405180830381600087803b158015620010f857600080fd5b505af11580156200110d573d6000803e3d6000fd5b5050505080806200111e9062002177565b91505062001026565b5060405163690a49f960e01b81526001600160a01b03838116600483015284169063690a49f990602401600060405180830381600087803b1580156200116c57600080fd5b505af115801562001181573d6000803e3d6000fd5b5050604051634273cc2160e11b81526001600160a01b038481166004830152851692506384e798429150602401600060405180830381600087803b158015620011c957600080fd5b505af1158015620011de573d6000803e3d6000fd5b5050505060005b620011f460c08a018a62002039565b9050811015620012b7576001600160a01b0383166384e798426200121c60c08c018c62002039565b848181106200122f576200122f62002161565b905060200201602081019062001246919062001d9b565b6040516001600160e01b031960e084901b1681526001600160a01b039091166004820152602401600060405180830381600087803b1580156200128857600080fd5b505af11580156200129d573d6000803e3d6000fd5b505050508080620012ae9062002177565b915050620011e5565b5060005b620012ca60e08a018a62002039565b90508110156200138d576001600160a01b0382166384e79842620012f260e08c018c62002039565b8481811062001305576200130562002161565b90506020020160208101906200131c919062001d9b565b6040516001600160e01b031960e084901b1681526001600160a01b039091166004820152602401600060405180830381600087803b1580156200135e57600080fd5b505af115801562001373573d6000803e3d6000fd5b505050508080620013849062002177565b915050620012bb565b5060005b620013a16101008a018a62002039565b90508110156200160d576001600160a01b03851663a446d49f620013ca6101008c018c62002039565b84818110620013dd57620013dd62002161565b9050602002016020810190620013f4919062001d9b565b6040516001600160e01b031960e084901b1681526001600160a01b039091166004820152602401602060405180830381865afa15801562001439573d6000803e3d6000fd5b505050506040513d601f19601f820116820180604052508101906200145f9190620021ea565b62001509576001600160a01b038516631ed86f19620014836101008c018c62002039565b8481811062001496576200149662002161565b9050602002016020810190620014ad919062001d9b565b6040516001600160e01b031960e084901b1681526001600160a01b039091166004820152602401600060405180830381600087803b158015620014ef57600080fd5b505af115801562001504573d6000803e3d6000fd5b505050505b620015196101208a018a62002039565b9050811015620015f8576001600160a01b03851663efb22d33620015426101208c018c62002039565b8481811062001555576200155562002161565b90506020028101906200156991906200208d565b620015796101008e018e62002039565b868181106200158c576200158c62002161565b9050602002016020810190620015a3919062001d9b565b6040518463ffffffff1660e01b8152600401620015c3939291906200220e565b600060405180830381600087803b158015620015de57600080fd5b505af1158015620015f3573d6000803e3d6000fd5b505050505b80620016048162002177565b91505062001391565b508060038a6040516200162191906200201b565b9081526040516020918190038201902080546001600160a01b0319166001600160a01b039384161790559082169063f2fde38b9062001663908b018b62001d9b565b6040516001600160e01b031960e084901b1681526001600160a01b039091166004820152602401600060405180830381600087803b158015620016a557600080fd5b505af1158015620016ba573d6000803e3d6000fd5b5050506001600160a01b038316905063f2fde38b620016dd60208b018b62001d9b565b6040516001600160e01b031960e084901b1681526001600160a01b039091166004820152602401600060405180830381600087803b1580156200171f57600080fd5b505af115801562001734573d6000803e3d6000fd5b5050506001600160a01b038716905063f2fde38b6200175760208b018b62001d9b565b6040516001600160e01b031960e084901b1681526001600160a01b039091166004820152602401600060405180830381600087803b1580156200179957600080fd5b505af1158015620017ae573d6000803e3d6000fd5b5050506001600160a01b038616905063f2fde38b620017d160208b018b62001d9b565b6040516001600160e01b031960e084901b1681526001600160a01b039091166004820152602401600060405180830381600087803b1580156200181357600080fd5b505af115801562001828573d6000803e3d6000fd5b5050506001600160a01b038516905063f2fde38b6200184b60208b018b62001d9b565b6040516001600160e01b031960e084901b1681526001600160a01b039091166004820152602401600060405180830381600087803b1580156200188d57600080fd5b505af1158015620018a2573d6000803e3d6000fd5b5050505088604051620018b691906200201b565b604080519182900382206001600160a01b0385811684528681166020850152898116848401528881166060850152878116608085015291519092918416917f057adae5fa3e9caa8a0d584edff60f61558d33f073412ec2d66d558b739e0a41919081900360a00190a3505050505050505050565b62001934620019a9565b6001600160a01b0381166200199b5760405162461bcd60e51b815260206004820152602660248201527f4f776e61626c653a206e6577206f776e657220697320746865207a65726f206160448201526564647265737360d01b6064820152608401620002b6565b620019a68162001a05565b50565b6000546001600160a01b03163314620002575760405162461bcd60e51b815260206004820181905260248201527f4f776e61626c653a2063616c6c6572206973206e6f7420746865206f776e65726044820152606401620002b6565b600080546001600160a01b038381166001600160a01b0319831681178455604051919092169283917f8be0079c531659141344cd1fd0a4f28419497f9722a3daafe3b4186f6b6457e09190a35050565b6000806040518060200162001a6a9062001cf3565b601f1982820381018352601f9091011660408181526001600160a01b03861660208301529192506000910160405160208183030381529060405290506000828260405160200162001abd9291906200224f565b604051602081830303815290604052905062001ada868262001c6b565b9695505050505050565b6000806040518060200162001a6a9062001d01565b6000806040518060200162001a6a9062001d0f565b6000806040518060200162001a6a9062001d1d565b6000806040518060200162001b389062001d2b565b601f1982820381018352601f9091011660408181526001600160a01b03898116602084015288811682840152878116606084015286166080808401919091528151808403909101815260a0830190915291925060009062001ba0908490849060c0016200224f565b604051602081830303815290604052905062001bbd898262001c6b565b9998505050505050505050565b6000806040518060200162001bdf9062001d39565b6020820181038252601f19601f82011660405250905060008989898989898960405160200162001c16979695949392919062002282565b60405160208183030381529060405290506000828260405160200162001c3e9291906200224f565b604051602081830303815290604052905062001c5b8c8262001c6b565b9c9b505050505050505050505050565b6000808360405160200162001c8191906200201b565b60405160208183030381529060405280519060200120905060008360200184518381836000f592505050803b62001cb757600080fd5b6040516001600160a01b038216907ff40fcec21964ffb566044d083b4073f29f7f7929110ea19e1b3ebe375d89055e90600090a2949350505050565b6108fc80620022eb83390190565b6108fc8062002be783390190565b6108fc80620034e383390190565b6108fc8062003ddf83390190565b6109bf80620046db83390190565b610d05806200509a83390190565b6001600160a01b0381168114620019a657600080fd5b6000806040838503121562001d7157600080fd5b823562001d7e8162001d47565b9150602083013562001d908162001d47565b809150509250929050565b60006020828403121562001dae57600080fd5b813562001dbb8162001d47565b9392505050565b6000806020838503121562001dd657600080fd5b823567ffffffffffffffff8082111562001def57600080fd5b818501915085601f83011262001e0457600080fd5b81358181111562001e1457600080fd5b86602082850101111562001e2757600080fd5b60209290920196919550909350505050565b634e487b7160e01b600052604160045260246000fd5b600082601f83011262001e6157600080fd5b813567ffffffffffffffff8082111562001e7f5762001e7f62001e39565b604051601f8301601f19908116603f0116810190828211818310171562001eaa5762001eaa62001e39565b8160405283815286602085880101111562001ec457600080fd5b836020870160208301376000602085830101528094505050505092915050565b60008060006060848603121562001efa57600080fd5b833567ffffffffffffffff8082111562001f1357600080fd5b62001f218783880162001e4f565b9450602086013591508082111562001f3857600080fd5b90850190610140828803121562001f4e57600080fd5b9092506040850135908082111562001f6557600080fd5b5084016060818703121562001f7957600080fd5b809150509250925092565b60006020828403121562001f9757600080fd5b813567ffffffffffffffff81111562001faf57600080fd5b62001fbd8482850162001e4f565b949350505050565b60006020828403121562001fd857600080fd5b815162001dbb8162001d47565b8183823760009101908152919050565b60005b838110156200201257818101518382015260200162001ff8565b50506000910152565b600082516200202f81846020870162001ff5565b9190910192915050565b6000808335601e198436030181126200205157600080fd5b83018035915067ffffffffffffffff8211156200206d57600080fd5b6020019150600581901b36038213156200208657600080fd5b9250929050565b6000808335601e19843603018112620020a557600080fd5b83018035915067ffffffffffffffff821115620020c157600080fd5b6020019150368190038213156200208657600080fd5b600060208284031215620020ea57600080fd5b813560ff8116811462001dbb57600080fd5b600081518084526200211681602086016020860162001ff5565b601f01601f19169290920160200192915050565b6001600160a01b038481168252831660208201526060604082018190526000906200215890830184620020fc565b95945050505050565b634e487b7160e01b600052603260045260246000fd5b6000600182016200219857634e487b7160e01b600052601160045260246000fd5b5060010190565b6001600160a01b0384168152604060208201819052810182905260006001600160fb1b03831115620021d057600080fd5b8260051b8085606085013791909101606001949350505050565b600060208284031215620021fd57600080fd5b8151801515811462001dbb57600080fd5b6040815282604082015282846060830137600060608483018101919091526001600160a01b03929092166020820152601f909201601f191690910101919050565b600083516200226381846020880162001ff5565b8351908301906200227981836020880162001ff5565b01949350505050565b600060018060a01b03808a1683528089166020840152808816604084015260e06060840152620022b660e0840188620020fc565b8381036080850152620022ca8188620020fc565b60ff9690961660a0850152509290921660c090910152509594505050505056fe608060405234801561001057600080fd5b506040516108fc3803806108fc83398101604081905261002f9161022a565b6001600160a01b03811661008a5760405162461bcd60e51b815260206004820152601f60248201527f696e76616c696420617267756d656e74202d207a65726f20616464726573730060448201526064015b60405180910390fd5b6100a0816000805160206108dc83398151915255565b6040516001600160a01b038216907f3b1074392ed8e8424715d0dda2197eede67080b377fc8370e26f3e882207f6b890600090a260006100ec6000805160206108dc8339815191525490565b6001600160a01b031663fedcc0526040518163ffffffff1660e01b8152600401602060405180830381865afa158015610129573d6000803e3d6000fd5b505050506040513d601f19601f8201168201806040525081019061014d919061022a565b60408051600481526024810182526020810180516001600160e01b03166370e39c9560e11b17905290519192506000916001600160a01b038416916101919161025a565b600060405180830381855af49150503d80600081146101cc576040519150601f19603f3d011682016040523d82523d6000602084013e6101d1565b606091505b50509050806102225760405162461bcd60e51b815260206004820152601660248201527f496e697469616c697a6174696f6e206661696c65642e000000000000000000006044820152606401610081565b505050610289565b60006020828403121561023c57600080fd5b81516001600160a01b038116811461025357600080fd5b9392505050565b6000825160005b8181101561027b5760208186018101518583015201610261565b506000920191825250919050565b610644806102986000396000f3fe6080604052600436106100295760003560e01c80632d5f1187146100cf57806392dd9d6514610108575b60006100416000805160206105ef8339815191525490565b6001600160a01b031663fedcc0526040518163ffffffff1660e01b8152600401602060405180830381865afa15801561007e573d6000803e3d6000fd5b505050506040513d601f19601f820116820180604052508101906100a291906105ad565b90503660008037600080366000846127105a03f43d806000803e8180156100c857816000f35b816000fd5b005b3480156100db57600080fd5b506000805160206105ef833981519152546040516001600160a01b03909116815260200160405180910390f35b34801561011457600080fd5b506100cd6101233660046105d1565b6000805160206105ef833981519152546001600160a01b0316336001600160a01b0316146101ae5760405162461bcd60e51b815260206004820152602d60248201527f6f6e6c792063757272656e7420696d706c656d656e746174696f6e417574686f60448201526c1c9a5d1e4818d85b8818d85b1b609a1b60648201526084015b60405180910390fd5b6001600160a01b0381166102045760405162461bcd60e51b815260206004820152601f60248201527f696e76616c696420617267756d656e74202d207a65726f20616464726573730060448201526064016101a5565b60006001600160a01b0316816001600160a01b031663709bc7f36040518163ffffffff1660e01b8152600401602060405180830381865afa15801561024d573d6000803e3d6000fd5b505050506040513d601f19601f8201168201806040525081019061027191906105ad565b6001600160a01b0316141580156102fc575060006001600160a01b0316816001600160a01b0316636ff6e83f6040518163ffffffff1660e01b8152600401602060405180830381865afa1580156102cc573d6000803e3d6000fd5b505050506040513d601f19601f820116820180604052508101906102f091906105ad565b6001600160a01b031614155b801561037c575060006001600160a01b0316816001600160a01b0316631ee9ce8b6040518163ffffffff1660e01b8152600401602060405180830381865afa15801561034c573d6000803e3d6000fd5b505050506040513d601f19601f8201168201806040525081019061037091906105ad565b6001600160a01b031614155b80156103fc575060006001600160a01b0316816001600160a01b0316639e3e7bb96040518163ffffffff1660e01b8152600401602060405180830381865afa1580156103cc573d6000803e3d6000fd5b505050506040513d601f19601f820116820180604052508101906103f091906105ad565b6001600160a01b031614155b801561047c575060006001600160a01b0316816001600160a01b03166361f898256040518163ffffffff1660e01b8152600401602060405180830381865afa15801561044c573d6000803e3d6000fd5b505050506040513d601f19601f8201168201806040525081019061047091906105ad565b6001600160a01b031614155b80156104fc575060006001600160a01b0316816001600160a01b031663fedcc0526040518163ffffffff1660e01b8152600401602060405180830381865afa1580156104cc573d6000803e3d6000fd5b505050506040513d601f19601f820116820180604052508101906104f091906105ad565b6001600160a01b031614155b6105485760405162461bcd60e51b815260206004820181905260248201527f696e76616c696420496d706c656d656e746174696f6e20417574686f7269747960448201526064016101a5565b61055e816000805160206105ef83398151915255565b6040516001600160a01b038216907f3b1074392ed8e8424715d0dda2197eede67080b377fc8370e26f3e882207f6b890600090a250565b6001600160a01b03811681146105aa57600080fd5b50565b6000602082840312156105bf57600080fd5b81516105ca81610595565b9392505050565b6000602082840312156105e357600080fd5b81356105ca8161059556fe821f3e4d3d679f19eacc940c87acf846ea6eae24a63058ea750304437a62aafca2646970667358221220767f7f15fa2b79a36f47d1631fcda09983190295b6f739a847f30526b8d99f8764736f6c63430008110033821f3e4d3d679f19eacc940c87acf846ea6eae24a63058ea750304437a62aafc608060405234801561001057600080fd5b506040516108fc3803806108fc83398101604081905261002f9161022a565b6001600160a01b03811661008a5760405162461bcd60e51b815260206004820152601f60248201527f696e76616c696420617267756d656e74202d207a65726f20616464726573730060448201526064015b60405180910390fd5b6100a0816000805160206108dc83398151915255565b6040516001600160a01b038216907f3b1074392ed8e8424715d0dda2197eede67080b377fc8370e26f3e882207f6b890600090a260006100ec6000805160206108dc8339815191525490565b6001600160a01b0316636ff6e83f6040518163ffffffff1660e01b8152600401602060405180830381865afa158015610129573d6000803e3d6000fd5b505050506040513d601f19601f8201168201806040525081019061014d919061022a565b60408051600481526024810182526020810180516001600160e01b03166370e39c9560e11b17905290519192506000916001600160a01b038416916101919161025a565b600060405180830381855af49150503d80600081146101cc576040519150601f19603f3d011682016040523d82523d6000602084013e6101d1565b606091505b50509050806102225760405162461bcd60e51b815260206004820152601660248201527f496e697469616c697a6174696f6e206661696c65642e000000000000000000006044820152606401610081565b505050610289565b60006020828403121561023c57600080fd5b81516001600160a01b038116811461025357600080fd5b9392505050565b6000825160005b8181101561027b5760208186018101518583015201610261565b506000920191825250919050565b610644806102986000396000f3fe6080604052600436106100295760003560e01c80632d5f1187146100cf57806392dd9d6514610108575b60006100416000805160206105ef8339815191525490565b6001600160a01b0316636ff6e83f6040518163ffffffff1660e01b8152600401602060405180830381865afa15801561007e573d6000803e3d6000fd5b505050506040513d601f19601f820116820180604052508101906100a291906105ad565b90503660008037600080366000846127105a03f43d806000803e8180156100c857816000f35b816000fd5b005b3480156100db57600080fd5b506000805160206105ef833981519152546040516001600160a01b03909116815260200160405180910390f35b34801561011457600080fd5b506100cd6101233660046105d1565b6000805160206105ef833981519152546001600160a01b0316336001600160a01b0316146101ae5760405162461bcd60e51b815260206004820152602d60248201527f6f6e6c792063757272656e7420696d706c656d656e746174696f6e417574686f60448201526c1c9a5d1e4818d85b8818d85b1b609a1b60648201526084015b60405180910390fd5b6001600160a01b0381166102045760405162461bcd60e51b815260206004820152601f60248201527f696e76616c696420617267756d656e74202d207a65726f20616464726573730060448201526064016101a5565b60006001600160a01b0316816001600160a01b031663709bc7f36040518163ffffffff1660e01b8152600401602060405180830381865afa15801561024d573d6000803e3d6000fd5b505050506040513d601f19601f8201168201806040525081019061027191906105ad565b6001600160a01b0316141580156102fc575060006001600160a01b0316816001600160a01b0316636ff6e83f6040518163ffffffff1660e01b8152600401602060405180830381865afa1580156102cc573d6000803e3d6000fd5b505050506040513d601f19601f820116820180604052508101906102f091906105ad565b6001600160a01b031614155b801561037c575060006001600160a01b0316816001600160a01b0316631ee9ce8b6040518163ffffffff1660e01b8152600401602060405180830381865afa15801561034c573d6000803e3d6000fd5b505050506040513d601f19601f8201168201806040525081019061037091906105ad565b6001600160a01b031614155b80156103fc575060006001600160a01b0316816001600160a01b0316639e3e7bb96040518163ffffffff1660e01b8152600401602060405180830381865afa1580156103cc573d6000803e3d6000fd5b505050506040513d601f19601f820116820180604052508101906103f091906105ad565b6001600160a01b031614155b801561047c575060006001600160a01b0316816001600160a01b03166361f898256040518163ffffffff1660e01b8152600401602060405180830381865afa15801561044c573d6000803e3d6000fd5b505050506040513d601f19601f8201168201806040525081019061047091906105ad565b6001600160a01b031614155b80156104fc575060006001600160a01b0316816001600160a01b031663fedcc0526040518163ffffffff1660e01b8152600401602060405180830381865afa1580156104cc573d6000803e3d6000fd5b505050506040513d601f19601f820116820180604052508101906104f091906105ad565b6001600160a01b031614155b6105485760405162461bcd60e51b815260206004820181905260248201527f696e76616c696420496d706c656d656e746174696f6e20417574686f7269747960448201526064016101a5565b61055e816000805160206105ef83398151915255565b6040516001600160a01b038216907f3b1074392ed8e8424715d0dda2197eede67080b377fc8370e26f3e882207f6b890600090a250565b6001600160a01b03811681146105aa57600080fd5b50565b6000602082840312156105bf57600080fd5b81516105ca81610595565b9392505050565b6000602082840312156105e357600080fd5b81356105ca8161059556fe821f3e4d3d679f19eacc940c87acf846ea6eae24a63058ea750304437a62aafca2646970667358221220d7fa6a09698043502b95c0e41086ad50abab8e20c278aa6e9bf05f35c381271164736f6c63430008110033821f3e4d3d679f19eacc940c87acf846ea6eae24a63058ea750304437a62aafc608060405234801561001057600080fd5b506040516108fc3803806108fc83398101604081905261002f9161022a565b6001600160a01b03811661008a5760405162461bcd60e51b815260206004820152601f60248201527f696e76616c696420617267756d656e74202d207a65726f20616464726573730060448201526064015b60405180910390fd5b6100a0816000805160206108dc83398151915255565b6040516001600160a01b038216907f3b1074392ed8e8424715d0dda2197eede67080b377fc8370e26f3e882207f6b890600090a260006100ec6000805160206108dc8339815191525490565b6001600160a01b03166361f898256040518163ffffffff1660e01b8152600401602060405180830381865afa158015610129573d6000803e3d6000fd5b505050506040513d601f19601f8201168201806040525081019061014d919061022a565b60408051600481526024810182526020810180516001600160e01b03166370e39c9560e11b17905290519192506000916001600160a01b038416916101919161025a565b600060405180830381855af49150503d80600081146101cc576040519150601f19603f3d011682016040523d82523d6000602084013e6101d1565b606091505b50509050806102225760405162461bcd60e51b815260206004820152601660248201527f496e697469616c697a6174696f6e206661696c65642e000000000000000000006044820152606401610081565b505050610289565b60006020828403121561023c57600080fd5b81516001600160a01b038116811461025357600080fd5b9392505050565b6000825160005b8181101561027b5760208186018101518583015201610261565b506000920191825250919050565b610644806102986000396000f3fe6080604052600436106100295760003560e01c80632d5f1187146100cf57806392dd9d6514610108575b60006100416000805160206105ef8339815191525490565b6001600160a01b03166361f898256040518163ffffffff1660e01b8152600401602060405180830381865afa15801561007e573d6000803e3d6000fd5b505050506040513d601f19601f820116820180604052508101906100a291906105ad565b90503660008037600080366000846127105a03f43d806000803e8180156100c857816000f35b816000fd5b005b3480156100db57600080fd5b506000805160206105ef833981519152546040516001600160a01b03909116815260200160405180910390f35b34801561011457600080fd5b506100cd6101233660046105d1565b6000805160206105ef833981519152546001600160a01b0316336001600160a01b0316146101ae5760405162461bcd60e51b815260206004820152602d60248201527f6f6e6c792063757272656e7420696d706c656d656e746174696f6e417574686f60448201526c1c9a5d1e4818d85b8818d85b1b609a1b60648201526084015b60405180910390fd5b6001600160a01b0381166102045760405162461bcd60e51b815260206004820152601f60248201527f696e76616c696420617267756d656e74202d207a65726f20616464726573730060448201526064016101a5565b60006001600160a01b0316816001600160a01b031663709bc7f36040518163ffffffff1660e01b8152600401602060405180830381865afa15801561024d573d6000803e3d6000fd5b505050506040513d601f19601f8201168201806040525081019061027191906105ad565b6001600160a01b0316141580156102fc575060006001600160a01b0316816001600160a01b0316636ff6e83f6040518163ffffffff1660e01b8152600401602060405180830381865afa1580156102cc573d6000803e3d6000fd5b505050506040513d601f19601f820116820180604052508101906102f091906105ad565b6001600160a01b031614155b801561037c575060006001600160a01b0316816001600160a01b0316631ee9ce8b6040518163ffffffff1660e01b8152600401602060405180830381865afa15801561034c573d6000803e3d6000fd5b505050506040513d601f19601f8201168201806040525081019061037091906105ad565b6001600160a01b031614155b80156103fc575060006001600160a01b0316816001600160a01b0316639e3e7bb96040518163ffffffff1660e01b8152600401602060405180830381865afa1580156103cc573d6000803e3d6000fd5b505050506040513d601f19601f820116820180604052508101906103f091906105ad565b6001600160a01b031614155b801561047c575060006001600160a01b0316816001600160a01b03166361f898256040518163ffffffff1660e01b8152600401602060405180830381865afa15801561044c573d6000803e3d6000fd5b505050506040513d601f19601f8201168201806040525081019061047091906105ad565b6001600160a01b031614155b80156104fc575060006001600160a01b0316816001600160a01b031663fedcc0526040518163ffffffff1660e01b8152600401602060405180830381865afa1580156104cc573d6000803e3d6000fd5b505050506040513d601f19601f820116820180604052508101906104f091906105ad565b6001600160a01b031614155b6105485760405162461bcd60e51b815260206004820181905260248201527f696e76616c696420496d706c656d656e746174696f6e20417574686f7269747960448201526064016101a5565b61055e816000805160206105ef83398151915255565b6040516001600160a01b038216907f3b1074392ed8e8424715d0dda2197eede67080b377fc8370e26f3e882207f6b890600090a250565b6001600160a01b03811681146105aa57600080fd5b50565b6000602082840312156105bf57600080fd5b81516105ca81610595565b9392505050565b6000602082840312156105e357600080fd5b81356105ca8161059556fe821f3e4d3d679f19eacc940c87acf846ea6eae24a63058ea750304437a62aafca26469706673582212204d462243229c9a4f618b5e78ede4cb8a6c05379da46b06c214fd635ea233982864736f6c63430008110033821f3e4d3d679f19eacc940c87acf846ea6eae24a63058ea750304437a62aafc608060405234801561001057600080fd5b506040516108fc3803806108fc83398101604081905261002f9161022a565b6001600160a01b03811661008a5760405162461bcd60e51b815260206004820152601f60248201527f696e76616c696420617267756d656e74202d207a65726f20616464726573730060448201526064015b60405180910390fd5b6100a0816000805160206108dc83398151915255565b6040516001600160a01b038216907f3b1074392ed8e8424715d0dda2197eede67080b377fc8370e26f3e882207f6b890600090a260006100ec6000805160206108dc8339815191525490565b6001600160a01b0316639e3e7bb96040518163ffffffff1660e01b8152600401602060405180830381865afa158015610129573d6000803e3d6000fd5b505050506040513d601f19601f8201168201806040525081019061014d919061022a565b60408051600481526024810182526020810180516001600160e01b03166370e39c9560e11b17905290519192506000916001600160a01b038416916101919161025a565b600060405180830381855af49150503d80600081146101cc576040519150601f19603f3d011682016040523d82523d6000602084013e6101d1565b606091505b50509050806102225760405162461bcd60e51b815260206004820152601660248201527f496e697469616c697a6174696f6e206661696c65642e000000000000000000006044820152606401610081565b505050610289565b60006020828403121561023c57600080fd5b81516001600160a01b038116811461025357600080fd5b9392505050565b6000825160005b8181101561027b5760208186018101518583015201610261565b506000920191825250919050565b610644806102986000396000f3fe6080604052600436106100295760003560e01c80632d5f1187146100cf57806392dd9d6514610108575b60006100416000805160206105ef8339815191525490565b6001600160a01b0316639e3e7bb96040518163ffffffff1660e01b8152600401602060405180830381865afa15801561007e573d6000803e3d6000fd5b505050506040513d601f19601f820116820180604052508101906100a291906105ad565b90503660008037600080366000846127105a03f43d806000803e8180156100c857816000f35b816000fd5b005b3480156100db57600080fd5b506000805160206105ef833981519152546040516001600160a01b03909116815260200160405180910390f35b34801561011457600080fd5b506100cd6101233660046105d1565b6000805160206105ef833981519152546001600160a01b0316336001600160a01b0316146101ae5760405162461bcd60e51b815260206004820152602d60248201527f6f6e6c792063757272656e7420696d706c656d656e746174696f6e417574686f60448201526c1c9a5d1e4818d85b8818d85b1b609a1b60648201526084015b60405180910390fd5b6001600160a01b0381166102045760405162461bcd60e51b815260206004820152601f60248201527f696e76616c696420617267756d656e74202d207a65726f20616464726573730060448201526064016101a5565b60006001600160a01b0316816001600160a01b031663709bc7f36040518163ffffffff1660e01b8152600401602060405180830381865afa15801561024d573d6000803e3d6000fd5b505050506040513d601f19601f8201168201806040525081019061027191906105ad565b6001600160a01b0316141580156102fc575060006001600160a01b0316816001600160a01b0316636ff6e83f6040518163ffffffff1660e01b8152600401602060405180830381865afa1580156102cc573d6000803e3d6000fd5b505050506040513d601f19601f820116820180604052508101906102f091906105ad565b6001600160a01b031614155b801561037c575060006001600160a01b0316816001600160a01b0316631ee9ce8b6040518163ffffffff1660e01b8152600401602060405180830381865afa15801561034c573d6000803e3d6000fd5b505050506040513d601f19601f8201168201806040525081019061037091906105ad565b6001600160a01b031614155b80156103fc575060006001600160a01b0316816001600160a01b0316639e3e7bb96040518163ffffffff1660e01b8152600401602060405180830381865afa1580156103cc573d6000803e3d6000fd5b505050506040513d601f19601f820116820180604052508101906103f091906105ad565b6001600160a01b031614155b801561047c575060006001600160a01b0316816001600160a01b03166361f898256040518163ffffffff1660e01b8152600401602060405180830381865afa15801561044c573d6000803e3d6000fd5b505050506040513d601f19601f8201168201806040525081019061047091906105ad565b6001600160a01b031614155b80156104fc575060006001600160a01b0316816001600160a01b031663fedcc0526040518163ffffffff1660e01b8152600401602060405180830381865afa1580156104cc573d6000803e3d6000fd5b505050506040513d601f19601f820116820180604052508101906104f091906105ad565b6001600160a01b031614155b6105485760405162461bcd60e51b815260206004820181905260248201527f696e76616c696420496d706c656d656e746174696f6e20417574686f7269747960448201526064016101a5565b61055e816000805160206105ef83398151915255565b6040516001600160a01b038216907f3b1074392ed8e8424715d0dda2197eede67080b377fc8370e26f3e882207f6b890600090a250565b6001600160a01b03811681146105aa57600080fd5b50565b6000602082840312156105bf57600080fd5b81516105ca81610595565b9392505050565b6000602082840312156105e357600080fd5b81356105ca8161059556fe821f3e4d3d679f19eacc940c87acf846ea6eae24a63058ea750304437a62aafca264697066735822122046bd1e737bc572483b8a12ccf53828ce86d1ebbff39dcf3d08a7cc5d0611553464736f6c63430008110033821f3e4d3d679f19eacc940c87acf846ea6eae24a63058ea750304437a62aafc608060405234801561001057600080fd5b506040516109bf3803806109bf83398101604081905261002f916102a7565b6001600160a01b0384161580159061004f57506001600160a01b03831615155b801561006357506001600160a01b03821615155b801561007757506001600160a01b03811615155b6100c85760405162461bcd60e51b815260206004820152601f60248201527f696e76616c696420617267756d656e74202d207a65726f20616464726573730060448201526064015b60405180910390fd5b6100de8460008051602061099f83398151915255565b6040516001600160a01b038516907f3b1074392ed8e8424715d0dda2197eede67080b377fc8370e26f3e882207f6b890600090a2600061012a60008051602061099f8339815191525490565b6001600160a01b0316631ee9ce8b6040518163ffffffff1660e01b8152600401602060405180830381865afa158015610167573d6000803e3d6000fd5b505050506040513d601f19601f8201168201806040525081019061018b91906102fb565b6040516001600160a01b0386811660248301528581166044830152848116606483015291925060009183169060840160408051601f198184030181529181526020820180516001600160e01b031663184b955960e01b179052516101ef919061031d565b600060405180830381855af49150503d806000811461022a576040519150601f19603f3d011682016040523d82523d6000602084013e61022f565b606091505b50509050806102805760405162461bcd60e51b815260206004820152601660248201527f496e697469616c697a6174696f6e206661696c65642e0000000000000000000060448201526064016100bf565b50505050505061034c565b80516001600160a01b03811681146102a257600080fd5b919050565b600080600080608085870312156102bd57600080fd5b6102c68561028b565b93506102d46020860161028b565b92506102e26040860161028b565b91506102f06060860161028b565b905092959194509250565b60006020828403121561030d57600080fd5b6103168261028b565b9392505050565b6000825160005b8181101561033e5760208186018101518583015201610324565b506000920191825250919050565b6106448061035b6000396000f3fe6080604052600436106100295760003560e01c80632d5f1187146100cf57806392dd9d6514610108575b60006100416000805160206105ef8339815191525490565b6001600160a01b0316631ee9ce8b6040518163ffffffff1660e01b8152600401602060405180830381865afa15801561007e573d6000803e3d6000fd5b505050506040513d601f19601f820116820180604052508101906100a291906105ad565b90503660008037600080366000846127105a03f43d806000803e8180156100c857816000f35b816000fd5b005b3480156100db57600080fd5b506000805160206105ef833981519152546040516001600160a01b03909116815260200160405180910390f35b34801561011457600080fd5b506100cd6101233660046105d1565b6000805160206105ef833981519152546001600160a01b0316336001600160a01b0316146101ae5760405162461bcd60e51b815260206004820152602d60248201527f6f6e6c792063757272656e7420696d706c656d656e746174696f6e417574686f60448201526c1c9a5d1e4818d85b8818d85b1b609a1b60648201526084015b60405180910390fd5b6001600160a01b0381166102045760405162461bcd60e51b815260206004820152601f60248201527f696e76616c696420617267756d656e74202d207a65726f20616464726573730060448201526064016101a5565b60006001600160a01b0316816001600160a01b031663709bc7f36040518163ffffffff1660e01b8152600401602060405180830381865afa15801561024d573d6000803e3d6000fd5b505050506040513d601f19601f8201168201806040525081019061027191906105ad565b6001600160a01b0316141580156102fc575060006001600160a01b0316816001600160a01b0316636ff6e83f6040518163ffffffff1660e01b8152600401602060405180830381865afa1580156102cc573d6000803e3d6000fd5b505050506040513d601f19601f820116820180604052508101906102f091906105ad565b6001600160a01b031614155b801561037c575060006001600160a01b0316816001600160a01b0316631ee9ce8b6040518163ffffffff1660e01b8152600401602060405180830381865afa15801561034c573d6000803e3d6000fd5b505050506040513d601f19601f8201168201806040525081019061037091906105ad565b6001600160a01b031614155b80156103fc575060006001600160a01b0316816001600160a01b0316639e3e7bb96040518163ffffffff1660e01b8152600401602060405180830381865afa1580156103cc573d6000803e3d6000fd5b505050506040513d601f19601f820116820180604052508101906103f091906105ad565b6001600160a01b031614155b801561047c575060006001600160a01b0316816001600160a01b03166361f898256040518163ffffffff1660e01b8152600401602060405180830381865afa15801561044c573d6000803e3d6000fd5b505050506040513d601f19601f8201168201806040525081019061047091906105ad565b6001600160a01b031614155b80156104fc575060006001600160a01b0316816001600160a01b031663fedcc0526040518163ffffffff1660e01b8152600401602060405180830381865afa1580156104cc573d6000803e3d6000fd5b505050506040513d601f19601f820116820180604052508101906104f091906105ad565b6001600160a01b031614155b6105485760405162461bcd60e51b815260206004820181905260248201527f696e76616c696420496d706c656d656e746174696f6e20417574686f7269747960448201526064016101a5565b61055e816000805160206105ef83398151915255565b6040516001600160a01b038216907f3b1074392ed8e8424715d0dda2197eede67080b377fc8370e26f3e882207f6b890600090a250565b6001600160a01b03811681146105aa57600080fd5b50565b6000602082840312156105bf57600080fd5b81516105ca81610595565b9392505050565b6000602082840312156105e357600080fd5b81356105ca8161059556fe821f3e4d3d679f19eacc940c87acf846ea6eae24a63058ea750304437a62aafca26469706673582212205b0bbfbf5bae650e4abb441a8a5f1e0406d33c46efd18dffab4ab0d97abf3f4364736f6c63430008110033821f3e4d3d679f19eacc940c87acf846ea6eae24a63058ea750304437a62aafc60806040523480156200001157600080fd5b5060405162000d0538038062000d058339810160408190526200003491620004dd565b6001600160a01b038716158015906200005557506001600160a01b03861615155b80156200006a57506001600160a01b03851615155b620000bc5760405162461bcd60e51b815260206004820152601f60248201527f696e76616c696420617267756d656e74202d207a65726f20616464726573730060448201526064015b60405180910390fd5b604051602001620000d890602080825260009082015260400190565b6040516020818303038152906040528051906020012084604051602001620001019190620005da565b60405160208183030381529060405280519060200120141580156200017f57506040516020016200013d90602080825260009082015260400190565b6040516020818303038152906040528051906020012083604051602001620001669190620005da565b6040516020818303038152906040528051906020012014155b620001cd5760405162461bcd60e51b815260206004820152601f60248201527f696e76616c696420617267756d656e74202d20656d70747920737472696e67006044820152606401620000b3565b60128260ff161115620002235760405162461bcd60e51b815260206004820152601960248201527f646563696d616c73206265747765656e203020616e64203138000000000000006044820152606401620000b3565b6200023b8760008051602062000ce583398151915255565b6040516001600160a01b038816907f3b1074392ed8e8424715d0dda2197eede67080b377fc8370e26f3e882207f6b890600090a260006200028960008051602062000ce58339815191525490565b6001600160a01b031663709bc7f36040518163ffffffff1660e01b8152600401602060405180830381865afa158015620002c7573d6000803e3d6000fd5b505050506040513d601f19601f82011682018060405250810190620002ed9190620005f6565b90506000816001600160a01b0316888888888888604051602401620003189695949392919062000614565b60408051601f198184030181529181526020820180516001600160e01b0316633e46d86760e21b179052516200034f919062000673565b600060405180830381855af49150503d80600081146200038c576040519150601f19603f3d011682016040523d82523d6000602084013e62000391565b606091505b5050905080620003e45760405162461bcd60e51b815260206004820152601660248201527f496e697469616c697a6174696f6e206661696c65642e000000000000000000006044820152606401620000b3565b50505050505050505062000691565b80516001600160a01b03811681146200040b57600080fd5b919050565b634e487b7160e01b600052604160045260246000fd5b60005b838110156200044357818101518382015260200162000429565b50506000910152565b600082601f8301126200045e57600080fd5b81516001600160401b03808211156200047b576200047b62000410565b604051601f8301601f19908116603f01168101908282118183101715620004a657620004a662000410565b81604052838152866020858801011115620004c057600080fd5b620004d384602083016020890162000426565b9695505050505050565b600080600080600080600060e0888a031215620004f957600080fd5b6200050488620003f3565b96506200051460208901620003f3565b95506200052460408901620003f3565b60608901519095506001600160401b03808211156200054257600080fd5b620005508b838c016200044c565b955060808a01519150808211156200056757600080fd5b50620005768a828b016200044c565b93505060a088015160ff811681146200058e57600080fd5b91506200059e60c08901620003f3565b905092959891949750929550565b60008151808452620005c681602086016020860162000426565b601f01601f19169290920160200192915050565b602081526000620005ef6020830184620005ac565b9392505050565b6000602082840312156200060957600080fd5b620005ef82620003f3565b600060018060a01b038089168352808816602084015260c060408401526200064060c0840188620005ac565b8381036060850152620006548188620005ac565b60ff969096166080850152509290921660a09091015250949350505050565b600082516200068781846020870162000426565b9190910192915050565b61064480620006a16000396000f3fe6080604052600436106100295760003560e01c80632d5f1187146100cf57806392dd9d6514610108575b60006100416000805160206105ef8339815191525490565b6001600160a01b031663709bc7f36040518163ffffffff1660e01b8152600401602060405180830381865afa15801561007e573d6000803e3d6000fd5b505050506040513d601f19601f820116820180604052508101906100a291906105ad565b90503660008037600080366000846127105a03f43d806000803e8180156100c857816000f35b816000fd5b005b3480156100db57600080fd5b506000805160206105ef833981519152546040516001600160a01b03909116815260200160405180910390f35b34801561011457600080fd5b506100cd6101233660046105d1565b6000805160206105ef833981519152546001600160a01b0316336001600160a01b0316146101ae5760405162461bcd60e51b815260206004820152602d60248201527f6f6e6c792063757272656e7420696d706c656d656e746174696f6e417574686f60448201526c1c9a5d1e4818d85b8818d85b1b609a1b60648201526084015b60405180910390fd5b6001600160a01b0381166102045760405162461bcd60e51b815260206004820152601f60248201527f696e76616c696420617267756d656e74202d207a65726f20616464726573730060448201526064016101a5565b60006001600160a01b0316816001600160a01b031663709bc7f36040518163ffffffff1660e01b8152600401602060405180830381865afa15801561024d573d6000803e3d6000fd5b505050506040513d601f19601f8201168201806040525081019061027191906105ad565b6001600160a01b0316141580156102fc575060006001600160a01b0316816001600160a01b0316636ff6e83f6040518163ffffffff1660e01b8152600401602060405180830381865afa1580156102cc573d6000803e3d6000fd5b505050506040513d601f19601f820116820180604052508101906102f091906105ad565b6001600160a01b031614155b801561037c575060006001600160a01b0316816001600160a01b0316631ee9ce8b6040518163ffffffff1660e01b8152600401602060405180830381865afa15801561034c573d6000803e3d6000fd5b505050506040513d601f19601f8201168201806040525081019061037091906105ad565b6001600160a01b031614155b80156103fc575060006001600160a01b0316816001600160a01b0316639e3e7bb96040518163ffffffff1660e01b8152600401602060405180830381865afa1580156103cc573d6000803e3d6000fd5b505050506040513d601f19601f820116820180604052508101906103f091906105ad565b6001600160a01b031614155b801561047c575060006001600160a01b0316816001600160a01b03166361f898256040518163ffffffff1660e01b8152600401602060405180830381865afa15801561044c573d6000803e3d6000fd5b505050506040513d601f19601f8201168201806040525081019061047091906105ad565b6001600160a01b031614155b80156104fc575060006001600160a01b0316816001600160a01b031663fedcc0526040518163ffffffff1660e01b8152600401602060405180830381865afa1580156104cc573d6000803e3d6000fd5b505050506040513d601f19601f820116820180604052508101906104f091906105ad565b6001600160a01b031614155b6105485760405162461bcd60e51b815260206004820181905260248201527f696e76616c696420496d706c656d656e746174696f6e20417574686f7269747960448201526064016101a5565b61055e816000805160206105ef83398151915255565b6040516001600160a01b038216907f3b1074392ed8e8424715d0dda2197eede67080b377fc8370e26f3e882207f6b890600090a250565b6001600160a01b03811681146105aa57600080fd5b50565b6000602082840312156105bf57600080fd5b81516105ca81610595565b9392505050565b6000602082840312156105e357600080fd5b81356105ca8161059556fe821f3e4d3d679f19eacc940c87acf846ea6eae24a63058ea750304437a62aafca26469706673582212207b444bee130348fa6d075656698ddec57b7a49ccf7c520b62b5093a3b517441964736f6c63430008110033821f3e4d3d679f19eacc940c87acf846ea6eae24a63058ea750304437a62aafca2646970667358221220706a18039ca6570ce9a8a68d5073f2ef0e432cbbc1e43a10e71e00ea5620647964736f6c634300081100336c656d656e746174696f6e20417574686f726974790000000000000000000000",
  "linkReferences": {},
  "deployedLinkReferences": {}
}