{"abi":[{"type":"function","name":"swap","inputs":[{"name":"partyB","type":"address","internalType":"address"},{"name":"tokenA","type":"address","internalType":"address"},{"name":"amountA","type":"uint256","internalType":"uint256"},{"name":"tokenB","type":"address","internalType":"address"},{"name":"amountB","type":"uint256","internalType":"uint256"}],"outputs":[],"stateMutability":"nonpayable"},{"type":"event","name":"SwapExecuted","inputs":[{"name":"partyA","type":"address","indexed":true,"internalType":"address"},{"name":"partyB","type":"address","indexed":true,"internalType":"address"},{"name":"tokenA","type":"address","indexed":false,"internalType":"address"},{"name":"amountA","type":"uint256","indexed":false,"internalType":"uint256"},{"name":"tokenB","type":"address","indexed":false,"internalType":"address"},{"name":"amountB","type":"uint256","indexed":false,"internalType":"uint256"}],"anonymous":false}],"bytecode":{"object":"0x6080604052348015600e575f5ffd5b506106d78061001c5f395ff3fe608060405234801561000f575f5ffd5b5060043610610029575f3560e01c806317d88f461461002d575b5f5ffd5b61004760048036038101906100429190610384565b610049565b005b5f3390508573ffffffffffffffffffffffffffffffffffffffff168173ffffffffffffffffffffffffffffffffffffffff16036100bb576040517f08c379a00000000000000000000000000000000000000000000000000000000081526004016100b290610455565b60405180910390fd5b5f841180156100c957505f82115b610108576040517f08c379a00000000000000000000000000000000000000000000000000000000081526004016100ff906104bd565b60405180910390fd5b8473ffffffffffffffffffffffffffffffffffffffff166323b872dd8288876040518463ffffffff1660e01b8152600401610145939291906104f9565b6020604051808303815f875af1158015610161573d5f5f3e3d5ffd5b505050506040513d601f19601f820116820180604052508101906101859190610563565b6101c4576040517f08c379a00000000000000000000000000000000000000000000000000000000081526004016101bb906105d8565b60405180910390fd5b8273ffffffffffffffffffffffffffffffffffffffff166323b872dd8783856040518463ffffffff1660e01b8152600401610201939291906104f9565b6020604051808303815f875af115801561021d573d5f5f3e3d5ffd5b505050506040513d601f19601f820116820180604052508101906102419190610563565b610280576040517f08c379a000000000000000000000000000000000000000000000000000000000815260040161027790610640565b60405180910390fd5b8573ffffffffffffffffffffffffffffffffffffffff168173ffffffffffffffffffffffffffffffffffffffff167fdf3ff2e86e1af4d6d8bf6878cfd4467c3ea1378c946a742e9634281e328048c0878787876040516102e3949392919061065e565b60405180910390a3505050505050565b5f5ffd5b5f73ffffffffffffffffffffffffffffffffffffffff82169050919050565b5f610320826102f7565b9050919050565b61033081610316565b811461033a575f5ffd5b50565b5f8135905061034b81610327565b92915050565b5f819050919050565b61036381610351565b811461036d575f5ffd5b50565b5f8135905061037e8161035a565b92915050565b5f5f5f5f5f60a0868803121561039d5761039c6102f3565b5b5f6103aa8882890161033d565b95505060206103bb8882890161033d565b94505060406103cc88828901610370565b93505060606103dd8882890161033d565b92505060806103ee88828901610370565b9150509295509295909350565b5f82825260208201905092915050565b7f43616e6e6f74207377617020776974682073656c6600000000000000000000005f82015250565b5f61043f6015836103fb565b915061044a8261040b565b602082019050919050565b5f6020820190508181035f83015261046c81610433565b9050919050565b7f416d6f756e7473206d757374206265203e2030000000000000000000000000005f82015250565b5f6104a76013836103fb565b91506104b282610473565b602082019050919050565b5f6020820190508181035f8301526104d48161049b565b9050919050565b6104e481610316565b82525050565b6104f381610351565b82525050565b5f60608201905061050c5f8301866104db565b61051960208301856104db565b61052660408301846104ea565b949350505050565b5f8115159050919050565b6105428161052e565b811461054c575f5ffd5b50565b5f8151905061055d81610539565b92915050565b5f60208284031215610578576105776102f3565b5b5f6105858482850161054f565b91505092915050565b7f546f6b656e41207472616e73666572206661696c6564000000000000000000005f82015250565b5f6105c26016836103fb565b91506105cd8261058e565b602082019050919050565b5f6020820190508181035f8301526105ef816105b6565b9050919050565b7f546f6b656e42207472616e73666572206661696c6564000000000000000000005f82015250565b5f61062a6016836103fb565b9150610635826105f6565b602082019050919050565b5f6020820190508181035f8301526106578161061e565b9050919050565b5f6080820190506106715f8301876104db565b61067e60208301866104ea565b61068b60408301856104db565b61069860608301846104ea565b9594505050505056fea264697066735822122006affaa3404ba39be135d3eb06676df47771a00c6aa80ebc47602853accac4a364736f6c634300081d0033","linkReferences":{}},"methodIdentifiers":{"swap(address,address,uint256,address,uint256)":"17d88f46"},"id":0}